{
	"contracts/SimpleStorage.sol": {
		"SimpleStorage": {
			"abi": [
				{
					"inputs": [
						{
							"internalType": "string",
							"name": "_name",
							"type": "string"
						},
						{
							"internalType": "uint256",
							"name": "_favoriteNumber",
							"type": "uint256"
						}
					],
					"name": "addPerson",
					"outputs": [],
					"stateMutability": "nonpayable",
					"type": "function"
				},
				{
					"inputs": [
						{
							"internalType": "uint256",
							"name": "",
							"type": "uint256"
						}
					],
					"name": "people",
					"outputs": [
						{
							"internalType": "uint256",
							"name": "favoriteNumber",
							"type": "uint256"
						},
						{
							"internalType": "string",
							"name": "name",
							"type": "string"
						}
					],
					"stateMutability": "view",
					"type": "function"
				},
				{
					"inputs": [],
					"name": "retrive",
					"outputs": [
						{
							"internalType": "uint256",
							"name": "",
							"type": "uint256"
						}
					],
					"stateMutability": "view",
					"type": "function"
				},
				{
					"inputs": [
						{
							"internalType": "uint256",
							"name": "_favoriteNumber",
							"type": "uint256"
						}
					],
					"name": "store",
					"outputs": [],
					"stateMutability": "nonpayable",
					"type": "function"
				}
			],
			"devdoc": {
				"kind": "dev",
				"methods": {},
				"version": 1
			},
			"evm": {
				"assembly": "    /* \"contracts/SimpleStorage.sol\":123:1588  contract SimpleStorage {... */\n  mstore(0x40, 0x80)\n  callvalue\n  dup1\n  iszero\n  tag_1\n  jumpi\n  0x00\n  dup1\n  revert\ntag_1:\n  pop\n  dataSize(sub_0)\n  dup1\n  dataOffset(sub_0)\n  0x00\n  codecopy\n  0x00\n  return\nstop\n\nsub_0: assembly {\n        /* \"contracts/SimpleStorage.sol\":123:1588  contract SimpleStorage {... */\n      mstore(0x40, 0x80)\n      callvalue\n      dup1\n      iszero\n      tag_1\n      jumpi\n      0x00\n      dup1\n      revert\n    tag_1:\n      pop\n      jumpi(tag_2, lt(calldatasize, 0x04))\n      shr(0xe0, calldataload(0x00))\n      dup1\n      0x6057361d\n      eq\n      tag_3\n      jumpi\n      dup1\n      0x6f760f41\n      eq\n      tag_4\n      jumpi\n      dup1\n      0x9e7a13ad\n      eq\n      tag_5\n      jumpi\n      dup1\n      0xa6b7fc5b\n      eq\n      tag_6\n      jumpi\n    tag_2:\n      0x00\n      dup1\n      revert\n        /* \"contracts/SimpleStorage.sol\":557:823  function store(uint256 _favoriteNumber) public{... */\n    tag_3:\n      tag_7\n      0x04\n      dup1\n      calldatasize\n      sub\n      dup2\n      add\n      swap1\n      tag_8\n      swap2\n      swap1\n      tag_9\n      jump\t// in\n    tag_8:\n      tag_10\n      jump\t// in\n    tag_7:\n      stop\n        /* \"contracts/SimpleStorage.sol\":1442:1575  function addPerson(string memory _name, uint256 _favoriteNumber) public{... */\n    tag_4:\n      tag_11\n      0x04\n      dup1\n      calldatasize\n      sub\n      dup2\n      add\n      swap1\n      tag_12\n      swap2\n      swap1\n      tag_13\n      jump\t// in\n    tag_12:\n      tag_14\n      jump\t// in\n    tag_11:\n      stop\n        /* \"contracts/SimpleStorage.sol\":1411:1433  People[] public people */\n    tag_5:\n      tag_15\n      0x04\n      dup1\n      calldatasize\n      sub\n      dup2\n      add\n      swap1\n      tag_16\n      swap2\n      swap1\n      tag_9\n      jump\t// in\n    tag_16:\n      tag_17\n      jump\t// in\n    tag_15:\n      mload(0x40)\n      tag_18\n      swap3\n      swap2\n      swap1\n      tag_19\n      jump\t// in\n    tag_18:\n      mload(0x40)\n      dup1\n      swap2\n      sub\n      swap1\n      return\n        /* \"contracts/SimpleStorage.sol\":1037:1124  function retrive() public view returns(uint256){... */\n    tag_6:\n      tag_20\n      tag_21\n      jump\t// in\n    tag_20:\n      mload(0x40)\n      tag_22\n      swap2\n      swap1\n      tag_23\n      jump\t// in\n    tag_22:\n      mload(0x40)\n      dup1\n      swap2\n      sub\n      swap1\n      return\n        /* \"contracts/SimpleStorage.sol\":557:823  function store(uint256 _favoriteNumber) public{... */\n    tag_10:\n        /* \"contracts/SimpleStorage.sol\":629:644  _favoriteNumber */\n      dup1\n        /* \"contracts/SimpleStorage.sol\":612:626  favoriteNumber */\n      0x00\n        /* \"contracts/SimpleStorage.sol\":612:644  favoriteNumber = _favoriteNumber */\n      dup2\n      swap1\n      sstore\n      pop\n        /* \"contracts/SimpleStorage.sol\":557:823  function store(uint256 _favoriteNumber) public{... */\n      pop\n      jump\t// out\n        /* \"contracts/SimpleStorage.sol\":1442:1575  function addPerson(string memory _name, uint256 _favoriteNumber) public{... */\n    tag_14:\n        /* \"contracts/SimpleStorage.sol\":1524:1530  people */\n      0x01\n        /* \"contracts/SimpleStorage.sol\":1536:1566  People(_favoriteNumber, _name) */\n      mload(0x40)\n      dup1\n      0x40\n      add\n      0x40\n      mstore\n      dup1\n        /* \"contracts/SimpleStorage.sol\":1543:1558  _favoriteNumber */\n      dup4\n        /* \"contracts/SimpleStorage.sol\":1536:1566  People(_favoriteNumber, _name) */\n      dup2\n      mstore\n      0x20\n      add\n        /* \"contracts/SimpleStorage.sol\":1560:1565  _name */\n      dup5\n        /* \"contracts/SimpleStorage.sol\":1536:1566  People(_favoriteNumber, _name) */\n      dup2\n      mstore\n      pop\n        /* \"contracts/SimpleStorage.sol\":1524:1567  people.push(People(_favoriteNumber, _name)) */\n      swap1\n      dup1\n      0x01\n      dup2\n      sload\n      add\n      dup1\n      dup3\n      sstore\n      dup1\n      swap2\n      pop\n      pop\n      0x01\n      swap1\n      sub\n      swap1\n      0x00\n      mstore\n      keccak256(0x00, 0x20)\n      swap1\n      0x02\n      mul\n      add\n      0x00\n      swap1\n      swap2\n      swap1\n      swap2\n      swap1\n      swap2\n      pop\n      0x00\n      dup3\n      add\n      mload\n      dup2\n      0x00\n      add\n      sstore\n      0x20\n      dup3\n      add\n      mload\n      dup2\n      0x01\n      add\n      swap1\n      dup1\n      mload\n      swap1\n      0x20\n      add\n      swap1\n      tag_27\n      swap3\n      swap2\n      swap1\n      tag_28\n      jump\t// in\n    tag_27:\n      pop\n      pop\n      pop\n        /* \"contracts/SimpleStorage.sol\":1442:1575  function addPerson(string memory _name, uint256 _favoriteNumber) public{... */\n      pop\n      pop\n      jump\t// out\n        /* \"contracts/SimpleStorage.sol\":1411:1433  People[] public people */\n    tag_17:\n      0x01\n      dup2\n      dup2\n      sload\n      dup2\n      lt\n      tag_29\n      jumpi\n      0x00\n      dup1\n      revert\n    tag_29:\n      swap1\n      0x00\n      mstore\n      keccak256(0x00, 0x20)\n      swap1\n      0x02\n      mul\n      add\n      0x00\n      swap2\n      pop\n      swap1\n      pop\n      dup1\n      0x00\n      add\n      sload\n      swap1\n      dup1\n      0x01\n      add\n      dup1\n      sload\n      tag_31\n      swap1\n      tag_32\n      jump\t// in\n    tag_31:\n      dup1\n      0x1f\n      add\n      0x20\n      dup1\n      swap2\n      div\n      mul\n      0x20\n      add\n      mload(0x40)\n      swap1\n      dup2\n      add\n      0x40\n      mstore\n      dup1\n      swap3\n      swap2\n      swap1\n      dup2\n      dup2\n      mstore\n      0x20\n      add\n      dup3\n      dup1\n      sload\n      tag_33\n      swap1\n      tag_32\n      jump\t// in\n    tag_33:\n      dup1\n      iszero\n      tag_34\n      jumpi\n      dup1\n      0x1f\n      lt\n      tag_35\n      jumpi\n      0x0100\n      dup1\n      dup4\n      sload\n      div\n      mul\n      dup4\n      mstore\n      swap2\n      0x20\n      add\n      swap2\n      jump(tag_34)\n    tag_35:\n      dup3\n      add\n      swap2\n      swap1\n      0x00\n      mstore\n      keccak256(0x00, 0x20)\n      swap1\n    tag_36:\n      dup2\n      sload\n      dup2\n      mstore\n      swap1\n      0x01\n      add\n      swap1\n      0x20\n      add\n      dup1\n      dup4\n      gt\n      tag_36\n      jumpi\n      dup3\n      swap1\n      sub\n      0x1f\n      and\n      dup3\n      add\n      swap2\n    tag_34:\n      pop\n      pop\n      pop\n      pop\n      pop\n      swap1\n      pop\n      dup3\n      jump\t// out\n        /* \"contracts/SimpleStorage.sol\":1037:1124  function retrive() public view returns(uint256){... */\n    tag_21:\n        /* \"contracts/SimpleStorage.sol\":1076:1083  uint256 */\n      0x00\n        /* \"contracts/SimpleStorage.sol\":1102:1116  favoriteNumber */\n      dup1\n      sload\n        /* \"contracts/SimpleStorage.sol\":1095:1116  return favoriteNumber */\n      swap1\n      pop\n        /* \"contracts/SimpleStorage.sol\":1037:1124  function retrive() public view returns(uint256){... */\n      swap1\n      jump\t// out\n    tag_28:\n      dup3\n      dup1\n      sload\n      tag_38\n      swap1\n      tag_32\n      jump\t// in\n    tag_38:\n      swap1\n      0x00\n      mstore\n      keccak256(0x00, 0x20)\n      swap1\n      0x1f\n      add\n      0x20\n      swap1\n      div\n      dup2\n      add\n      swap3\n      dup3\n      tag_40\n      jumpi\n      0x00\n      dup6\n      sstore\n      jump(tag_39)\n    tag_40:\n      dup3\n      0x1f\n      lt\n      tag_41\n      jumpi\n      dup1\n      mload\n      not(0xff)\n      and\n      dup4\n      dup1\n      add\n      or\n      dup6\n      sstore\n      jump(tag_39)\n    tag_41:\n      dup3\n      dup1\n      add\n      0x01\n      add\n      dup6\n      sstore\n      dup3\n      iszero\n      tag_39\n      jumpi\n      swap2\n      dup3\n      add\n    tag_42:\n      dup3\n      dup2\n      gt\n      iszero\n      tag_43\n      jumpi\n      dup3\n      mload\n      dup3\n      sstore\n      swap2\n      0x20\n      add\n      swap2\n      swap1\n      0x01\n      add\n      swap1\n      jump(tag_42)\n    tag_43:\n    tag_39:\n      pop\n      swap1\n      pop\n      tag_44\n      swap2\n      swap1\n      tag_45\n      jump\t// in\n    tag_44:\n      pop\n      swap1\n      jump\t// out\n    tag_45:\n    tag_46:\n      dup1\n      dup3\n      gt\n      iszero\n      tag_47\n      jumpi\n      0x00\n      dup2\n      0x00\n      swap1\n      sstore\n      pop\n      0x01\n      add\n      jump(tag_46)\n    tag_47:\n      pop\n      swap1\n      jump\t// out\n        /* \"#utility.yul\":7:82   */\n    tag_48:\n        /* \"#utility.yul\":40:46   */\n      0x00\n        /* \"#utility.yul\":73:75   */\n      0x40\n        /* \"#utility.yul\":67:76   */\n      mload\n        /* \"#utility.yul\":57:76   */\n      swap1\n      pop\n        /* \"#utility.yul\":7:82   */\n      swap1\n      jump\t// out\n        /* \"#utility.yul\":88:205   */\n    tag_49:\n        /* \"#utility.yul\":197:198   */\n      0x00\n        /* \"#utility.yul\":194:195   */\n      dup1\n        /* \"#utility.yul\":187:199   */\n      revert\n        /* \"#utility.yul\":211:328   */\n    tag_50:\n        /* \"#utility.yul\":320:321   */\n      0x00\n        /* \"#utility.yul\":317:318   */\n      dup1\n        /* \"#utility.yul\":310:322   */\n      revert\n        /* \"#utility.yul\":334:411   */\n    tag_51:\n        /* \"#utility.yul\":371:378   */\n      0x00\n        /* \"#utility.yul\":400:405   */\n      dup2\n        /* \"#utility.yul\":389:405   */\n      swap1\n      pop\n        /* \"#utility.yul\":334:411   */\n      swap2\n      swap1\n      pop\n      jump\t// out\n        /* \"#utility.yul\":417:539   */\n    tag_52:\n        /* \"#utility.yul\":490:514   */\n      tag_76\n        /* \"#utility.yul\":508:513   */\n      dup2\n        /* \"#utility.yul\":490:514   */\n      tag_51\n      jump\t// in\n    tag_76:\n        /* \"#utility.yul\":483:488   */\n      dup2\n        /* \"#utility.yul\":480:515   */\n      eq\n        /* \"#utility.yul\":470:533   */\n      tag_77\n      jumpi\n        /* \"#utility.yul\":529:530   */\n      0x00\n        /* \"#utility.yul\":526:527   */\n      dup1\n        /* \"#utility.yul\":519:531   */\n      revert\n        /* \"#utility.yul\":470:533   */\n    tag_77:\n        /* \"#utility.yul\":417:539   */\n      pop\n      jump\t// out\n        /* \"#utility.yul\":545:684   */\n    tag_53:\n        /* \"#utility.yul\":591:596   */\n      0x00\n        /* \"#utility.yul\":629:635   */\n      dup2\n        /* \"#utility.yul\":616:636   */\n      calldataload\n        /* \"#utility.yul\":607:636   */\n      swap1\n      pop\n        /* \"#utility.yul\":645:678   */\n      tag_79\n        /* \"#utility.yul\":672:677   */\n      dup2\n        /* \"#utility.yul\":645:678   */\n      tag_52\n      jump\t// in\n    tag_79:\n        /* \"#utility.yul\":545:684   */\n      swap3\n      swap2\n      pop\n      pop\n      jump\t// out\n        /* \"#utility.yul\":690:1019   */\n    tag_9:\n        /* \"#utility.yul\":749:755   */\n      0x00\n        /* \"#utility.yul\":798:800   */\n      0x20\n        /* \"#utility.yul\":786:795   */\n      dup3\n        /* \"#utility.yul\":777:784   */\n      dup5\n        /* \"#utility.yul\":773:796   */\n      sub\n        /* \"#utility.yul\":769:801   */\n      slt\n        /* \"#utility.yul\":766:885   */\n      iszero\n      tag_81\n      jumpi\n        /* \"#utility.yul\":804:883   */\n      tag_82\n      tag_49\n      jump\t// in\n    tag_82:\n        /* \"#utility.yul\":766:885   */\n    tag_81:\n        /* \"#utility.yul\":924:925   */\n      0x00\n        /* \"#utility.yul\":949:1002   */\n      tag_83\n        /* \"#utility.yul\":994:1001   */\n      dup5\n        /* \"#utility.yul\":985:991   */\n      dup3\n        /* \"#utility.yul\":974:983   */\n      dup6\n        /* \"#utility.yul\":970:992   */\n      add\n        /* \"#utility.yul\":949:1002   */\n      tag_53\n      jump\t// in\n    tag_83:\n        /* \"#utility.yul\":939:1002   */\n      swap2\n      pop\n        /* \"#utility.yul\":895:1012   */\n      pop\n        /* \"#utility.yul\":690:1019   */\n      swap3\n      swap2\n      pop\n      pop\n      jump\t// out\n        /* \"#utility.yul\":1025:1142   */\n    tag_54:\n        /* \"#utility.yul\":1134:1135   */\n      0x00\n        /* \"#utility.yul\":1131:1132   */\n      dup1\n        /* \"#utility.yul\":1124:1136   */\n      revert\n        /* \"#utility.yul\":1148:1265   */\n    tag_55:\n        /* \"#utility.yul\":1257:1258   */\n      0x00\n        /* \"#utility.yul\":1254:1255   */\n      dup1\n        /* \"#utility.yul\":1247:1259   */\n      revert\n        /* \"#utility.yul\":1271:1373   */\n    tag_56:\n        /* \"#utility.yul\":1312:1318   */\n      0x00\n        /* \"#utility.yul\":1363:1365   */\n      0x1f\n        /* \"#utility.yul\":1359:1366   */\n      not\n        /* \"#utility.yul\":1354:1356   */\n      0x1f\n        /* \"#utility.yul\":1347:1352   */\n      dup4\n        /* \"#utility.yul\":1343:1357   */\n      add\n        /* \"#utility.yul\":1339:1367   */\n      and\n        /* \"#utility.yul\":1329:1367   */\n      swap1\n      pop\n        /* \"#utility.yul\":1271:1373   */\n      swap2\n      swap1\n      pop\n      jump\t// out\n        /* \"#utility.yul\":1379:1559   */\n    tag_57:\n        /* \"#utility.yul\":1427:1504   */\n      0x4e487b7100000000000000000000000000000000000000000000000000000000\n        /* \"#utility.yul\":1424:1425   */\n      0x00\n        /* \"#utility.yul\":1417:1505   */\n      mstore\n        /* \"#utility.yul\":1524:1528   */\n      0x41\n        /* \"#utility.yul\":1521:1522   */\n      0x04\n        /* \"#utility.yul\":1514:1529   */\n      mstore\n        /* \"#utility.yul\":1548:1552   */\n      0x24\n        /* \"#utility.yul\":1545:1546   */\n      0x00\n        /* \"#utility.yul\":1538:1553   */\n      revert\n        /* \"#utility.yul\":1565:1846   */\n    tag_58:\n        /* \"#utility.yul\":1648:1675   */\n      tag_89\n        /* \"#utility.yul\":1670:1674   */\n      dup3\n        /* \"#utility.yul\":1648:1675   */\n      tag_56\n      jump\t// in\n    tag_89:\n        /* \"#utility.yul\":1640:1646   */\n      dup2\n        /* \"#utility.yul\":1636:1676   */\n      add\n        /* \"#utility.yul\":1778:1784   */\n      dup2\n        /* \"#utility.yul\":1766:1776   */\n      dup2\n        /* \"#utility.yul\":1763:1785   */\n      lt\n        /* \"#utility.yul\":1742:1760   */\n      0xffffffffffffffff\n        /* \"#utility.yul\":1730:1740   */\n      dup3\n        /* \"#utility.yul\":1727:1761   */\n      gt\n        /* \"#utility.yul\":1724:1786   */\n      or\n        /* \"#utility.yul\":1721:1809   */\n      iszero\n      tag_90\n      jumpi\n        /* \"#utility.yul\":1789:1807   */\n      tag_91\n      tag_57\n      jump\t// in\n    tag_91:\n        /* \"#utility.yul\":1721:1809   */\n    tag_90:\n        /* \"#utility.yul\":1829:1839   */\n      dup1\n        /* \"#utility.yul\":1825:1827   */\n      0x40\n        /* \"#utility.yul\":1818:1840   */\n      mstore\n        /* \"#utility.yul\":1608:1846   */\n      pop\n        /* \"#utility.yul\":1565:1846   */\n      pop\n      pop\n      jump\t// out\n        /* \"#utility.yul\":1852:1981   */\n    tag_59:\n        /* \"#utility.yul\":1886:1892   */\n      0x00\n        /* \"#utility.yul\":1913:1933   */\n      tag_93\n      tag_48\n      jump\t// in\n    tag_93:\n        /* \"#utility.yul\":1903:1933   */\n      swap1\n      pop\n        /* \"#utility.yul\":1942:1975   */\n      tag_94\n        /* \"#utility.yul\":1970:1974   */\n      dup3\n        /* \"#utility.yul\":1962:1968   */\n      dup3\n        /* \"#utility.yul\":1942:1975   */\n      tag_58\n      jump\t// in\n    tag_94:\n        /* \"#utility.yul\":1852:1981   */\n      swap2\n      swap1\n      pop\n      jump\t// out\n        /* \"#utility.yul\":1987:2295   */\n    tag_60:\n        /* \"#utility.yul\":2049:2053   */\n      0x00\n        /* \"#utility.yul\":2139:2157   */\n      0xffffffffffffffff\n        /* \"#utility.yul\":2131:2137   */\n      dup3\n        /* \"#utility.yul\":2128:2158   */\n      gt\n        /* \"#utility.yul\":2125:2181   */\n      iszero\n      tag_96\n      jumpi\n        /* \"#utility.yul\":2161:2179   */\n      tag_97\n      tag_57\n      jump\t// in\n    tag_97:\n        /* \"#utility.yul\":2125:2181   */\n    tag_96:\n        /* \"#utility.yul\":2199:2228   */\n      tag_98\n        /* \"#utility.yul\":2221:2227   */\n      dup3\n        /* \"#utility.yul\":2199:2228   */\n      tag_56\n      jump\t// in\n    tag_98:\n        /* \"#utility.yul\":2191:2228   */\n      swap1\n      pop\n        /* \"#utility.yul\":2283:2287   */\n      0x20\n        /* \"#utility.yul\":2277:2281   */\n      dup2\n        /* \"#utility.yul\":2273:2288   */\n      add\n        /* \"#utility.yul\":2265:2288   */\n      swap1\n      pop\n        /* \"#utility.yul\":1987:2295   */\n      swap2\n      swap1\n      pop\n      jump\t// out\n        /* \"#utility.yul\":2301:2455   */\n    tag_61:\n        /* \"#utility.yul\":2385:2391   */\n      dup3\n        /* \"#utility.yul\":2380:2383   */\n      dup2\n        /* \"#utility.yul\":2375:2378   */\n      dup4\n        /* \"#utility.yul\":2362:2392   */\n      calldatacopy\n        /* \"#utility.yul\":2447:2448   */\n      0x00\n        /* \"#utility.yul\":2438:2444   */\n      dup4\n        /* \"#utility.yul\":2433:2436   */\n      dup4\n        /* \"#utility.yul\":2429:2445   */\n      add\n        /* \"#utility.yul\":2422:2449   */\n      mstore\n        /* \"#utility.yul\":2301:2455   */\n      pop\n      pop\n      pop\n      jump\t// out\n        /* \"#utility.yul\":2461:2873   */\n    tag_62:\n        /* \"#utility.yul\":2539:2544   */\n      0x00\n        /* \"#utility.yul\":2564:2630   */\n      tag_101\n        /* \"#utility.yul\":2580:2629   */\n      tag_102\n        /* \"#utility.yul\":2622:2628   */\n      dup5\n        /* \"#utility.yul\":2580:2629   */\n      tag_60\n      jump\t// in\n    tag_102:\n        /* \"#utility.yul\":2564:2630   */\n      tag_59\n      jump\t// in\n    tag_101:\n        /* \"#utility.yul\":2555:2630   */\n      swap1\n      pop\n        /* \"#utility.yul\":2653:2659   */\n      dup3\n        /* \"#utility.yul\":2646:2651   */\n      dup2\n        /* \"#utility.yul\":2639:2660   */\n      mstore\n        /* \"#utility.yul\":2691:2695   */\n      0x20\n        /* \"#utility.yul\":2684:2689   */\n      dup2\n        /* \"#utility.yul\":2680:2696   */\n      add\n        /* \"#utility.yul\":2729:2732   */\n      dup5\n        /* \"#utility.yul\":2720:2726   */\n      dup5\n        /* \"#utility.yul\":2715:2718   */\n      dup5\n        /* \"#utility.yul\":2711:2727   */\n      add\n        /* \"#utility.yul\":2708:2733   */\n      gt\n        /* \"#utility.yul\":2705:2817   */\n      iszero\n      tag_103\n      jumpi\n        /* \"#utility.yul\":2736:2815   */\n      tag_104\n      tag_55\n      jump\t// in\n    tag_104:\n        /* \"#utility.yul\":2705:2817   */\n    tag_103:\n        /* \"#utility.yul\":2826:2867   */\n      tag_105\n        /* \"#utility.yul\":2860:2866   */\n      dup5\n        /* \"#utility.yul\":2855:2858   */\n      dup3\n        /* \"#utility.yul\":2850:2853   */\n      dup6\n        /* \"#utility.yul\":2826:2867   */\n      tag_61\n      jump\t// in\n    tag_105:\n        /* \"#utility.yul\":2545:2873   */\n      pop\n        /* \"#utility.yul\":2461:2873   */\n      swap4\n      swap3\n      pop\n      pop\n      pop\n      jump\t// out\n        /* \"#utility.yul\":2893:3233   */\n    tag_63:\n        /* \"#utility.yul\":2949:2954   */\n      0x00\n        /* \"#utility.yul\":2998:3001   */\n      dup3\n        /* \"#utility.yul\":2991:2995   */\n      0x1f\n        /* \"#utility.yul\":2983:2989   */\n      dup4\n        /* \"#utility.yul\":2979:2996   */\n      add\n        /* \"#utility.yul\":2975:3002   */\n      slt\n        /* \"#utility.yul\":2965:3087   */\n      tag_107\n      jumpi\n        /* \"#utility.yul\":3006:3085   */\n      tag_108\n      tag_54\n      jump\t// in\n    tag_108:\n        /* \"#utility.yul\":2965:3087   */\n    tag_107:\n        /* \"#utility.yul\":3123:3129   */\n      dup2\n        /* \"#utility.yul\":3110:3130   */\n      calldataload\n        /* \"#utility.yul\":3148:3227   */\n      tag_109\n        /* \"#utility.yul\":3223:3226   */\n      dup5\n        /* \"#utility.yul\":3215:3221   */\n      dup3\n        /* \"#utility.yul\":3208:3212   */\n      0x20\n        /* \"#utility.yul\":3200:3206   */\n      dup7\n        /* \"#utility.yul\":3196:3213   */\n      add\n        /* \"#utility.yul\":3148:3227   */\n      tag_62\n      jump\t// in\n    tag_109:\n        /* \"#utility.yul\":3139:3227   */\n      swap2\n      pop\n        /* \"#utility.yul\":2955:3233   */\n      pop\n        /* \"#utility.yul\":2893:3233   */\n      swap3\n      swap2\n      pop\n      pop\n      jump\t// out\n        /* \"#utility.yul\":3239:3893   */\n    tag_13:\n        /* \"#utility.yul\":3317:3323   */\n      0x00\n        /* \"#utility.yul\":3325:3331   */\n      dup1\n        /* \"#utility.yul\":3374:3376   */\n      0x40\n        /* \"#utility.yul\":3362:3371   */\n      dup4\n        /* \"#utility.yul\":3353:3360   */\n      dup6\n        /* \"#utility.yul\":3349:3372   */\n      sub\n        /* \"#utility.yul\":3345:3377   */\n      slt\n        /* \"#utility.yul\":3342:3461   */\n      iszero\n      tag_111\n      jumpi\n        /* \"#utility.yul\":3380:3459   */\n      tag_112\n      tag_49\n      jump\t// in\n    tag_112:\n        /* \"#utility.yul\":3342:3461   */\n    tag_111:\n        /* \"#utility.yul\":3528:3529   */\n      0x00\n        /* \"#utility.yul\":3517:3526   */\n      dup4\n        /* \"#utility.yul\":3513:3530   */\n      add\n        /* \"#utility.yul\":3500:3531   */\n      calldataload\n        /* \"#utility.yul\":3558:3576   */\n      0xffffffffffffffff\n        /* \"#utility.yul\":3550:3556   */\n      dup2\n        /* \"#utility.yul\":3547:3577   */\n      gt\n        /* \"#utility.yul\":3544:3661   */\n      iszero\n      tag_113\n      jumpi\n        /* \"#utility.yul\":3580:3659   */\n      tag_114\n      tag_50\n      jump\t// in\n    tag_114:\n        /* \"#utility.yul\":3544:3661   */\n    tag_113:\n        /* \"#utility.yul\":3685:3748   */\n      tag_115\n        /* \"#utility.yul\":3740:3747   */\n      dup6\n        /* \"#utility.yul\":3731:3737   */\n      dup3\n        /* \"#utility.yul\":3720:3729   */\n      dup7\n        /* \"#utility.yul\":3716:3738   */\n      add\n        /* \"#utility.yul\":3685:3748   */\n      tag_63\n      jump\t// in\n    tag_115:\n        /* \"#utility.yul\":3675:3748   */\n      swap3\n      pop\n        /* \"#utility.yul\":3471:3758   */\n      pop\n        /* \"#utility.yul\":3797:3799   */\n      0x20\n        /* \"#utility.yul\":3823:3876   */\n      tag_116\n        /* \"#utility.yul\":3868:3875   */\n      dup6\n        /* \"#utility.yul\":3859:3865   */\n      dup3\n        /* \"#utility.yul\":3848:3857   */\n      dup7\n        /* \"#utility.yul\":3844:3866   */\n      add\n        /* \"#utility.yul\":3823:3876   */\n      tag_53\n      jump\t// in\n    tag_116:\n        /* \"#utility.yul\":3813:3876   */\n      swap2\n      pop\n        /* \"#utility.yul\":3768:3886   */\n      pop\n        /* \"#utility.yul\":3239:3893   */\n      swap3\n      pop\n      swap3\n      swap1\n      pop\n      jump\t// out\n        /* \"#utility.yul\":3899:4017   */\n    tag_64:\n        /* \"#utility.yul\":3986:4010   */\n      tag_118\n        /* \"#utility.yul\":4004:4009   */\n      dup2\n        /* \"#utility.yul\":3986:4010   */\n      tag_51\n      jump\t// in\n    tag_118:\n        /* \"#utility.yul\":3981:3984   */\n      dup3\n        /* \"#utility.yul\":3974:4011   */\n      mstore\n        /* \"#utility.yul\":3899:4017   */\n      pop\n      pop\n      jump\t// out\n        /* \"#utility.yul\":4023:4122   */\n    tag_65:\n        /* \"#utility.yul\":4075:4081   */\n      0x00\n        /* \"#utility.yul\":4109:4114   */\n      dup2\n        /* \"#utility.yul\":4103:4115   */\n      mload\n        /* \"#utility.yul\":4093:4115   */\n      swap1\n      pop\n        /* \"#utility.yul\":4023:4122   */\n      swap2\n      swap1\n      pop\n      jump\t// out\n        /* \"#utility.yul\":4128:4297   */\n    tag_66:\n        /* \"#utility.yul\":4212:4223   */\n      0x00\n        /* \"#utility.yul\":4246:4252   */\n      dup3\n        /* \"#utility.yul\":4241:4244   */\n      dup3\n        /* \"#utility.yul\":4234:4253   */\n      mstore\n        /* \"#utility.yul\":4286:4290   */\n      0x20\n        /* \"#utility.yul\":4281:4284   */\n      dup3\n        /* \"#utility.yul\":4277:4291   */\n      add\n        /* \"#utility.yul\":4262:4291   */\n      swap1\n      pop\n        /* \"#utility.yul\":4128:4297   */\n      swap3\n      swap2\n      pop\n      pop\n      jump\t// out\n        /* \"#utility.yul\":4303:4610   */\n    tag_67:\n        /* \"#utility.yul\":4371:4372   */\n      0x00\n        /* \"#utility.yul\":4381:4494   */\n    tag_122:\n        /* \"#utility.yul\":4395:4401   */\n      dup4\n        /* \"#utility.yul\":4392:4393   */\n      dup2\n        /* \"#utility.yul\":4389:4402   */\n      lt\n        /* \"#utility.yul\":4381:4494   */\n      iszero\n      tag_124\n      jumpi\n        /* \"#utility.yul\":4480:4481   */\n      dup1\n        /* \"#utility.yul\":4475:4478   */\n      dup3\n        /* \"#utility.yul\":4471:4482   */\n      add\n        /* \"#utility.yul\":4465:4483   */\n      mload\n        /* \"#utility.yul\":4461:4462   */\n      dup2\n        /* \"#utility.yul\":4456:4459   */\n      dup5\n        /* \"#utility.yul\":4452:4463   */\n      add\n        /* \"#utility.yul\":4445:4484   */\n      mstore\n        /* \"#utility.yul\":4417:4419   */\n      0x20\n        /* \"#utility.yul\":4414:4415   */\n      dup2\n        /* \"#utility.yul\":4410:4420   */\n      add\n        /* \"#utility.yul\":4405:4420   */\n      swap1\n      pop\n        /* \"#utility.yul\":4381:4494   */\n      jump(tag_122)\n    tag_124:\n        /* \"#utility.yul\":4512:4518   */\n      dup4\n        /* \"#utility.yul\":4509:4510   */\n      dup2\n        /* \"#utility.yul\":4506:4519   */\n      gt\n        /* \"#utility.yul\":4503:4604   */\n      iszero\n      tag_125\n      jumpi\n        /* \"#utility.yul\":4592:4593   */\n      0x00\n        /* \"#utility.yul\":4583:4589   */\n      dup5\n        /* \"#utility.yul\":4578:4581   */\n      dup5\n        /* \"#utility.yul\":4574:4590   */\n      add\n        /* \"#utility.yul\":4567:4594   */\n      mstore\n        /* \"#utility.yul\":4503:4604   */\n    tag_125:\n        /* \"#utility.yul\":4352:4610   */\n      pop\n        /* \"#utility.yul\":4303:4610   */\n      pop\n      pop\n      pop\n      jump\t// out\n        /* \"#utility.yul\":4616:4980   */\n    tag_68:\n        /* \"#utility.yul\":4704:4707   */\n      0x00\n        /* \"#utility.yul\":4732:4771   */\n      tag_127\n        /* \"#utility.yul\":4765:4770   */\n      dup3\n        /* \"#utility.yul\":4732:4771   */\n      tag_65\n      jump\t// in\n    tag_127:\n        /* \"#utility.yul\":4787:4858   */\n      tag_128\n        /* \"#utility.yul\":4851:4857   */\n      dup2\n        /* \"#utility.yul\":4846:4849   */\n      dup6\n        /* \"#utility.yul\":4787:4858   */\n      tag_66\n      jump\t// in\n    tag_128:\n        /* \"#utility.yul\":4780:4858   */\n      swap4\n      pop\n        /* \"#utility.yul\":4867:4919   */\n      tag_129\n        /* \"#utility.yul\":4912:4918   */\n      dup2\n        /* \"#utility.yul\":4907:4910   */\n      dup6\n        /* \"#utility.yul\":4900:4904   */\n      0x20\n        /* \"#utility.yul\":4893:4898   */\n      dup7\n        /* \"#utility.yul\":4889:4905   */\n      add\n        /* \"#utility.yul\":4867:4919   */\n      tag_67\n      jump\t// in\n    tag_129:\n        /* \"#utility.yul\":4944:4973   */\n      tag_130\n        /* \"#utility.yul\":4966:4972   */\n      dup2\n        /* \"#utility.yul\":4944:4973   */\n      tag_56\n      jump\t// in\n    tag_130:\n        /* \"#utility.yul\":4939:4942   */\n      dup5\n        /* \"#utility.yul\":4935:4974   */\n      add\n        /* \"#utility.yul\":4928:4974   */\n      swap2\n      pop\n        /* \"#utility.yul\":4708:4980   */\n      pop\n        /* \"#utility.yul\":4616:4980   */\n      swap3\n      swap2\n      pop\n      pop\n      jump\t// out\n        /* \"#utility.yul\":4986:5409   */\n    tag_19:\n        /* \"#utility.yul\":5127:5131   */\n      0x00\n        /* \"#utility.yul\":5165:5167   */\n      0x40\n        /* \"#utility.yul\":5154:5163   */\n      dup3\n        /* \"#utility.yul\":5150:5168   */\n      add\n        /* \"#utility.yul\":5142:5168   */\n      swap1\n      pop\n        /* \"#utility.yul\":5178:5249   */\n      tag_132\n        /* \"#utility.yul\":5246:5247   */\n      0x00\n        /* \"#utility.yul\":5235:5244   */\n      dup4\n        /* \"#utility.yul\":5231:5248   */\n      add\n        /* \"#utility.yul\":5222:5228   */\n      dup6\n        /* \"#utility.yul\":5178:5249   */\n      tag_64\n      jump\t// in\n    tag_132:\n        /* \"#utility.yul\":5296:5305   */\n      dup2\n        /* \"#utility.yul\":5290:5294   */\n      dup2\n        /* \"#utility.yul\":5286:5306   */\n      sub\n        /* \"#utility.yul\":5281:5283   */\n      0x20\n        /* \"#utility.yul\":5270:5279   */\n      dup4\n        /* \"#utility.yul\":5266:5284   */\n      add\n        /* \"#utility.yul\":5259:5307   */\n      mstore\n        /* \"#utility.yul\":5324:5402   */\n      tag_133\n        /* \"#utility.yul\":5397:5401   */\n      dup2\n        /* \"#utility.yul\":5388:5394   */\n      dup5\n        /* \"#utility.yul\":5324:5402   */\n      tag_68\n      jump\t// in\n    tag_133:\n        /* \"#utility.yul\":5316:5402   */\n      swap1\n      pop\n        /* \"#utility.yul\":4986:5409   */\n      swap4\n      swap3\n      pop\n      pop\n      pop\n      jump\t// out\n        /* \"#utility.yul\":5415:5637   */\n    tag_23:\n        /* \"#utility.yul\":5508:5512   */\n      0x00\n        /* \"#utility.yul\":5546:5548   */\n      0x20\n        /* \"#utility.yul\":5535:5544   */\n      dup3\n        /* \"#utility.yul\":5531:5549   */\n      add\n        /* \"#utility.yul\":5523:5549   */\n      swap1\n      pop\n        /* \"#utility.yul\":5559:5630   */\n      tag_135\n        /* \"#utility.yul\":5627:5628   */\n      0x00\n        /* \"#utility.yul\":5616:5625   */\n      dup4\n        /* \"#utility.yul\":5612:5629   */\n      add\n        /* \"#utility.yul\":5603:5609   */\n      dup5\n        /* \"#utility.yul\":5559:5630   */\n      tag_64\n      jump\t// in\n    tag_135:\n        /* \"#utility.yul\":5415:5637   */\n      swap3\n      swap2\n      pop\n      pop\n      jump\t// out\n        /* \"#utility.yul\":5643:5823   */\n    tag_69:\n        /* \"#utility.yul\":5691:5768   */\n      0x4e487b7100000000000000000000000000000000000000000000000000000000\n        /* \"#utility.yul\":5688:5689   */\n      0x00\n        /* \"#utility.yul\":5681:5769   */\n      mstore\n        /* \"#utility.yul\":5788:5792   */\n      0x22\n        /* \"#utility.yul\":5785:5786   */\n      0x04\n        /* \"#utility.yul\":5778:5793   */\n      mstore\n        /* \"#utility.yul\":5812:5816   */\n      0x24\n        /* \"#utility.yul\":5809:5810   */\n      0x00\n        /* \"#utility.yul\":5802:5817   */\n      revert\n        /* \"#utility.yul\":5829:6149   */\n    tag_32:\n        /* \"#utility.yul\":5873:5879   */\n      0x00\n        /* \"#utility.yul\":5910:5911   */\n      0x02\n        /* \"#utility.yul\":5904:5908   */\n      dup3\n        /* \"#utility.yul\":5900:5912   */\n      div\n        /* \"#utility.yul\":5890:5912   */\n      swap1\n      pop\n        /* \"#utility.yul\":5957:5958   */\n      0x01\n        /* \"#utility.yul\":5951:5955   */\n      dup3\n        /* \"#utility.yul\":5947:5959   */\n      and\n        /* \"#utility.yul\":5978:5996   */\n      dup1\n        /* \"#utility.yul\":5968:6049   */\n      tag_138\n      jumpi\n        /* \"#utility.yul\":6034:6038   */\n      0x7f\n        /* \"#utility.yul\":6026:6032   */\n      dup3\n        /* \"#utility.yul\":6022:6039   */\n      and\n        /* \"#utility.yul\":6012:6039   */\n      swap2\n      pop\n        /* \"#utility.yul\":5968:6049   */\n    tag_138:\n        /* \"#utility.yul\":6096:6098   */\n      0x20\n        /* \"#utility.yul\":6088:6094   */\n      dup3\n        /* \"#utility.yul\":6085:6099   */\n      lt\n        /* \"#utility.yul\":6065:6083   */\n      dup2\n        /* \"#utility.yul\":6062:6100   */\n      eq\n        /* \"#utility.yul\":6059:6143   */\n      iszero\n      tag_139\n      jumpi\n        /* \"#utility.yul\":6115:6133   */\n      tag_140\n      tag_69\n      jump\t// in\n    tag_140:\n        /* \"#utility.yul\":6059:6143   */\n    tag_139:\n        /* \"#utility.yul\":5880:6149   */\n      pop\n        /* \"#utility.yul\":5829:6149   */\n      swap2\n      swap1\n      pop\n      jump\t// out\n\n    auxdata: 0xa2646970667358221220556a224ca41b9959301b9cec1f81db43e512f263c1e80a8104c33fae29bffd4864736f6c63430008080033\n}\n",
				"bytecode": {
					"linkReferences": {},
					"object": "608060405234801561001057600080fd5b50610649806100206000396000f3fe608060405234801561001057600080fd5b506004361061004c5760003560e01c80636057361d146100515780636f760f411461006d5780639e7a13ad14610089578063a6b7fc5b146100ba575b600080fd5b61006b60048036038101906100669190610301565b6100d8565b005b61008760048036038101906100829190610474565b6100e2565b005b6100a3600480360381019061009e9190610301565b61014f565b6040516100b1929190610567565b60405180910390f35b6100c261020b565b6040516100cf9190610597565b60405180910390f35b8060008190555050565b60016040518060400160405280838152602001848152509080600181540180825580915050600190039060005260206000209060020201600090919091909150600082015181600001556020820151816001019080519060200190610148929190610214565b5050505050565b6001818154811061015f57600080fd5b9060005260206000209060020201600091509050806000015490806001018054610188906105e1565b80601f01602080910402602001604051908101604052809291908181526020018280546101b4906105e1565b80156102015780601f106101d657610100808354040283529160200191610201565b820191906000526020600020905b8154815290600101906020018083116101e457829003601f168201915b5050505050905082565b60008054905090565b828054610220906105e1565b90600052602060002090601f0160209004810192826102425760008555610289565b82601f1061025b57805160ff1916838001178555610289565b82800160010185558215610289579182015b8281111561028857825182559160200191906001019061026d565b5b509050610296919061029a565b5090565b5b808211156102b357600081600090555060010161029b565b5090565b6000604051905090565b600080fd5b600080fd5b6000819050919050565b6102de816102cb565b81146102e957600080fd5b50565b6000813590506102fb816102d5565b92915050565b600060208284031215610317576103166102c1565b5b6000610325848285016102ec565b91505092915050565b600080fd5b600080fd5b6000601f19601f8301169050919050565b7f4e487b7100000000000000000000000000000000000000000000000000000000600052604160045260246000fd5b61038182610338565b810181811067ffffffffffffffff821117156103a05761039f610349565b5b80604052505050565b60006103b36102b7565b90506103bf8282610378565b919050565b600067ffffffffffffffff8211156103df576103de610349565b5b6103e882610338565b9050602081019050919050565b82818337600083830152505050565b6000610417610412846103c4565b6103a9565b90508281526020810184848401111561043357610432610333565b5b61043e8482856103f5565b509392505050565b600082601f83011261045b5761045a61032e565b5b813561046b848260208601610404565b91505092915050565b6000806040838503121561048b5761048a6102c1565b5b600083013567ffffffffffffffff8111156104a9576104a86102c6565b5b6104b585828601610446565b92505060206104c6858286016102ec565b9150509250929050565b6104d9816102cb565b82525050565b600081519050919050565b600082825260208201905092915050565b60005b838110156105195780820151818401526020810190506104fe565b83811115610528576000848401525b50505050565b6000610539826104df565b61054381856104ea565b93506105538185602086016104fb565b61055c81610338565b840191505092915050565b600060408201905061057c60008301856104d0565b818103602083015261058e818461052e565b90509392505050565b60006020820190506105ac60008301846104d0565b92915050565b7f4e487b7100000000000000000000000000000000000000000000000000000000600052602260045260246000fd5b600060028204905060018216806105f957607f821691505b6020821081141561060d5761060c6105b2565b5b5091905056fea2646970667358221220556a224ca41b9959301b9cec1f81db43e512f263c1e80a8104c33fae29bffd4864736f6c63430008080033",
					"opcodes": "PUSH1 0x80 PUSH1 0x40 MSTORE CALLVALUE DUP1 ISZERO PUSH2 0x10 JUMPI PUSH1 0x0 DUP1 REVERT JUMPDEST POP PUSH2 0x649 DUP1 PUSH2 0x20 PUSH1 0x0 CODECOPY PUSH1 0x0 RETURN INVALID PUSH1 0x80 PUSH1 0x40 MSTORE CALLVALUE DUP1 ISZERO PUSH2 0x10 JUMPI PUSH1 0x0 DUP1 REVERT JUMPDEST POP PUSH1 0x4 CALLDATASIZE LT PUSH2 0x4C JUMPI PUSH1 0x0 CALLDATALOAD PUSH1 0xE0 SHR DUP1 PUSH4 0x6057361D EQ PUSH2 0x51 JUMPI DUP1 PUSH4 0x6F760F41 EQ PUSH2 0x6D JUMPI DUP1 PUSH4 0x9E7A13AD EQ PUSH2 0x89 JUMPI DUP1 PUSH4 0xA6B7FC5B EQ PUSH2 0xBA JUMPI JUMPDEST PUSH1 0x0 DUP1 REVERT JUMPDEST PUSH2 0x6B PUSH1 0x4 DUP1 CALLDATASIZE SUB DUP2 ADD SWAP1 PUSH2 0x66 SWAP2 SWAP1 PUSH2 0x301 JUMP JUMPDEST PUSH2 0xD8 JUMP JUMPDEST STOP JUMPDEST PUSH2 0x87 PUSH1 0x4 DUP1 CALLDATASIZE SUB DUP2 ADD SWAP1 PUSH2 0x82 SWAP2 SWAP1 PUSH2 0x474 JUMP JUMPDEST PUSH2 0xE2 JUMP JUMPDEST STOP JUMPDEST PUSH2 0xA3 PUSH1 0x4 DUP1 CALLDATASIZE SUB DUP2 ADD SWAP1 PUSH2 0x9E SWAP2 SWAP1 PUSH2 0x301 JUMP JUMPDEST PUSH2 0x14F JUMP JUMPDEST PUSH1 0x40 MLOAD PUSH2 0xB1 SWAP3 SWAP2 SWAP1 PUSH2 0x567 JUMP JUMPDEST PUSH1 0x40 MLOAD DUP1 SWAP2 SUB SWAP1 RETURN JUMPDEST PUSH2 0xC2 PUSH2 0x20B JUMP JUMPDEST PUSH1 0x40 MLOAD PUSH2 0xCF SWAP2 SWAP1 PUSH2 0x597 JUMP JUMPDEST PUSH1 0x40 MLOAD DUP1 SWAP2 SUB SWAP1 RETURN JUMPDEST DUP1 PUSH1 0x0 DUP2 SWAP1 SSTORE POP POP JUMP JUMPDEST PUSH1 0x1 PUSH1 0x40 MLOAD DUP1 PUSH1 0x40 ADD PUSH1 0x40 MSTORE DUP1 DUP4 DUP2 MSTORE PUSH1 0x20 ADD DUP5 DUP2 MSTORE POP SWAP1 DUP1 PUSH1 0x1 DUP2 SLOAD ADD DUP1 DUP3 SSTORE DUP1 SWAP2 POP POP PUSH1 0x1 SWAP1 SUB SWAP1 PUSH1 0x0 MSTORE PUSH1 0x20 PUSH1 0x0 KECCAK256 SWAP1 PUSH1 0x2 MUL ADD PUSH1 0x0 SWAP1 SWAP2 SWAP1 SWAP2 SWAP1 SWAP2 POP PUSH1 0x0 DUP3 ADD MLOAD DUP2 PUSH1 0x0 ADD SSTORE PUSH1 0x20 DUP3 ADD MLOAD DUP2 PUSH1 0x1 ADD SWAP1 DUP1 MLOAD SWAP1 PUSH1 0x20 ADD SWAP1 PUSH2 0x148 SWAP3 SWAP2 SWAP1 PUSH2 0x214 JUMP JUMPDEST POP POP POP POP POP JUMP JUMPDEST PUSH1 0x1 DUP2 DUP2 SLOAD DUP2 LT PUSH2 0x15F JUMPI PUSH1 0x0 DUP1 REVERT JUMPDEST SWAP1 PUSH1 0x0 MSTORE PUSH1 0x20 PUSH1 0x0 KECCAK256 SWAP1 PUSH1 0x2 MUL ADD PUSH1 0x0 SWAP2 POP SWAP1 POP DUP1 PUSH1 0x0 ADD SLOAD SWAP1 DUP1 PUSH1 0x1 ADD DUP1 SLOAD PUSH2 0x188 SWAP1 PUSH2 0x5E1 JUMP JUMPDEST DUP1 PUSH1 0x1F ADD PUSH1 0x20 DUP1 SWAP2 DIV MUL PUSH1 0x20 ADD PUSH1 0x40 MLOAD SWAP1 DUP2 ADD PUSH1 0x40 MSTORE DUP1 SWAP3 SWAP2 SWAP1 DUP2 DUP2 MSTORE PUSH1 0x20 ADD DUP3 DUP1 SLOAD PUSH2 0x1B4 SWAP1 PUSH2 0x5E1 JUMP JUMPDEST DUP1 ISZERO PUSH2 0x201 JUMPI DUP1 PUSH1 0x1F LT PUSH2 0x1D6 JUMPI PUSH2 0x100 DUP1 DUP4 SLOAD DIV MUL DUP4 MSTORE SWAP2 PUSH1 0x20 ADD SWAP2 PUSH2 0x201 JUMP JUMPDEST DUP3 ADD SWAP2 SWAP1 PUSH1 0x0 MSTORE PUSH1 0x20 PUSH1 0x0 KECCAK256 SWAP1 JUMPDEST DUP2 SLOAD DUP2 MSTORE SWAP1 PUSH1 0x1 ADD SWAP1 PUSH1 0x20 ADD DUP1 DUP4 GT PUSH2 0x1E4 JUMPI DUP3 SWAP1 SUB PUSH1 0x1F AND DUP3 ADD SWAP2 JUMPDEST POP POP POP POP POP SWAP1 POP DUP3 JUMP JUMPDEST PUSH1 0x0 DUP1 SLOAD SWAP1 POP SWAP1 JUMP JUMPDEST DUP3 DUP1 SLOAD PUSH2 0x220 SWAP1 PUSH2 0x5E1 JUMP JUMPDEST SWAP1 PUSH1 0x0 MSTORE PUSH1 0x20 PUSH1 0x0 KECCAK256 SWAP1 PUSH1 0x1F ADD PUSH1 0x20 SWAP1 DIV DUP2 ADD SWAP3 DUP3 PUSH2 0x242 JUMPI PUSH1 0x0 DUP6 SSTORE PUSH2 0x289 JUMP JUMPDEST DUP3 PUSH1 0x1F LT PUSH2 0x25B JUMPI DUP1 MLOAD PUSH1 0xFF NOT AND DUP4 DUP1 ADD OR DUP6 SSTORE PUSH2 0x289 JUMP JUMPDEST DUP3 DUP1 ADD PUSH1 0x1 ADD DUP6 SSTORE DUP3 ISZERO PUSH2 0x289 JUMPI SWAP2 DUP3 ADD JUMPDEST DUP3 DUP2 GT ISZERO PUSH2 0x288 JUMPI DUP3 MLOAD DUP3 SSTORE SWAP2 PUSH1 0x20 ADD SWAP2 SWAP1 PUSH1 0x1 ADD SWAP1 PUSH2 0x26D JUMP JUMPDEST JUMPDEST POP SWAP1 POP PUSH2 0x296 SWAP2 SWAP1 PUSH2 0x29A JUMP JUMPDEST POP SWAP1 JUMP JUMPDEST JUMPDEST DUP1 DUP3 GT ISZERO PUSH2 0x2B3 JUMPI PUSH1 0x0 DUP2 PUSH1 0x0 SWAP1 SSTORE POP PUSH1 0x1 ADD PUSH2 0x29B JUMP JUMPDEST POP SWAP1 JUMP JUMPDEST PUSH1 0x0 PUSH1 0x40 MLOAD SWAP1 POP SWAP1 JUMP JUMPDEST PUSH1 0x0 DUP1 REVERT JUMPDEST PUSH1 0x0 DUP1 REVERT JUMPDEST PUSH1 0x0 DUP2 SWAP1 POP SWAP2 SWAP1 POP JUMP JUMPDEST PUSH2 0x2DE DUP2 PUSH2 0x2CB JUMP JUMPDEST DUP2 EQ PUSH2 0x2E9 JUMPI PUSH1 0x0 DUP1 REVERT JUMPDEST POP JUMP JUMPDEST PUSH1 0x0 DUP2 CALLDATALOAD SWAP1 POP PUSH2 0x2FB DUP2 PUSH2 0x2D5 JUMP JUMPDEST SWAP3 SWAP2 POP POP JUMP JUMPDEST PUSH1 0x0 PUSH1 0x20 DUP3 DUP5 SUB SLT ISZERO PUSH2 0x317 JUMPI PUSH2 0x316 PUSH2 0x2C1 JUMP JUMPDEST JUMPDEST PUSH1 0x0 PUSH2 0x325 DUP5 DUP3 DUP6 ADD PUSH2 0x2EC JUMP JUMPDEST SWAP2 POP POP SWAP3 SWAP2 POP POP JUMP JUMPDEST PUSH1 0x0 DUP1 REVERT JUMPDEST PUSH1 0x0 DUP1 REVERT JUMPDEST PUSH1 0x0 PUSH1 0x1F NOT PUSH1 0x1F DUP4 ADD AND SWAP1 POP SWAP2 SWAP1 POP JUMP JUMPDEST PUSH32 0x4E487B7100000000000000000000000000000000000000000000000000000000 PUSH1 0x0 MSTORE PUSH1 0x41 PUSH1 0x4 MSTORE PUSH1 0x24 PUSH1 0x0 REVERT JUMPDEST PUSH2 0x381 DUP3 PUSH2 0x338 JUMP JUMPDEST DUP2 ADD DUP2 DUP2 LT PUSH8 0xFFFFFFFFFFFFFFFF DUP3 GT OR ISZERO PUSH2 0x3A0 JUMPI PUSH2 0x39F PUSH2 0x349 JUMP JUMPDEST JUMPDEST DUP1 PUSH1 0x40 MSTORE POP POP POP JUMP JUMPDEST PUSH1 0x0 PUSH2 0x3B3 PUSH2 0x2B7 JUMP JUMPDEST SWAP1 POP PUSH2 0x3BF DUP3 DUP3 PUSH2 0x378 JUMP JUMPDEST SWAP2 SWAP1 POP JUMP JUMPDEST PUSH1 0x0 PUSH8 0xFFFFFFFFFFFFFFFF DUP3 GT ISZERO PUSH2 0x3DF JUMPI PUSH2 0x3DE PUSH2 0x349 JUMP JUMPDEST JUMPDEST PUSH2 0x3E8 DUP3 PUSH2 0x338 JUMP JUMPDEST SWAP1 POP PUSH1 0x20 DUP2 ADD SWAP1 POP SWAP2 SWAP1 POP JUMP JUMPDEST DUP3 DUP2 DUP4 CALLDATACOPY PUSH1 0x0 DUP4 DUP4 ADD MSTORE POP POP POP JUMP JUMPDEST PUSH1 0x0 PUSH2 0x417 PUSH2 0x412 DUP5 PUSH2 0x3C4 JUMP JUMPDEST PUSH2 0x3A9 JUMP JUMPDEST SWAP1 POP DUP3 DUP2 MSTORE PUSH1 0x20 DUP2 ADD DUP5 DUP5 DUP5 ADD GT ISZERO PUSH2 0x433 JUMPI PUSH2 0x432 PUSH2 0x333 JUMP JUMPDEST JUMPDEST PUSH2 0x43E DUP5 DUP3 DUP6 PUSH2 0x3F5 JUMP JUMPDEST POP SWAP4 SWAP3 POP POP POP JUMP JUMPDEST PUSH1 0x0 DUP3 PUSH1 0x1F DUP4 ADD SLT PUSH2 0x45B JUMPI PUSH2 0x45A PUSH2 0x32E JUMP JUMPDEST JUMPDEST DUP2 CALLDATALOAD PUSH2 0x46B DUP5 DUP3 PUSH1 0x20 DUP7 ADD PUSH2 0x404 JUMP JUMPDEST SWAP2 POP POP SWAP3 SWAP2 POP POP JUMP JUMPDEST PUSH1 0x0 DUP1 PUSH1 0x40 DUP4 DUP6 SUB SLT ISZERO PUSH2 0x48B JUMPI PUSH2 0x48A PUSH2 0x2C1 JUMP JUMPDEST JUMPDEST PUSH1 0x0 DUP4 ADD CALLDATALOAD PUSH8 0xFFFFFFFFFFFFFFFF DUP2 GT ISZERO PUSH2 0x4A9 JUMPI PUSH2 0x4A8 PUSH2 0x2C6 JUMP JUMPDEST JUMPDEST PUSH2 0x4B5 DUP6 DUP3 DUP7 ADD PUSH2 0x446 JUMP JUMPDEST SWAP3 POP POP PUSH1 0x20 PUSH2 0x4C6 DUP6 DUP3 DUP7 ADD PUSH2 0x2EC JUMP JUMPDEST SWAP2 POP POP SWAP3 POP SWAP3 SWAP1 POP JUMP JUMPDEST PUSH2 0x4D9 DUP2 PUSH2 0x2CB JUMP JUMPDEST DUP3 MSTORE POP POP JUMP JUMPDEST PUSH1 0x0 DUP2 MLOAD SWAP1 POP SWAP2 SWAP1 POP JUMP JUMPDEST PUSH1 0x0 DUP3 DUP3 MSTORE PUSH1 0x20 DUP3 ADD SWAP1 POP SWAP3 SWAP2 POP POP JUMP JUMPDEST PUSH1 0x0 JUMPDEST DUP4 DUP2 LT ISZERO PUSH2 0x519 JUMPI DUP1 DUP3 ADD MLOAD DUP2 DUP5 ADD MSTORE PUSH1 0x20 DUP2 ADD SWAP1 POP PUSH2 0x4FE JUMP JUMPDEST DUP4 DUP2 GT ISZERO PUSH2 0x528 JUMPI PUSH1 0x0 DUP5 DUP5 ADD MSTORE JUMPDEST POP POP POP POP JUMP JUMPDEST PUSH1 0x0 PUSH2 0x539 DUP3 PUSH2 0x4DF JUMP JUMPDEST PUSH2 0x543 DUP2 DUP6 PUSH2 0x4EA JUMP JUMPDEST SWAP4 POP PUSH2 0x553 DUP2 DUP6 PUSH1 0x20 DUP7 ADD PUSH2 0x4FB JUMP JUMPDEST PUSH2 0x55C DUP2 PUSH2 0x338 JUMP JUMPDEST DUP5 ADD SWAP2 POP POP SWAP3 SWAP2 POP POP JUMP JUMPDEST PUSH1 0x0 PUSH1 0x40 DUP3 ADD SWAP1 POP PUSH2 0x57C PUSH1 0x0 DUP4 ADD DUP6 PUSH2 0x4D0 JUMP JUMPDEST DUP2 DUP2 SUB PUSH1 0x20 DUP4 ADD MSTORE PUSH2 0x58E DUP2 DUP5 PUSH2 0x52E JUMP JUMPDEST SWAP1 POP SWAP4 SWAP3 POP POP POP JUMP JUMPDEST PUSH1 0x0 PUSH1 0x20 DUP3 ADD SWAP1 POP PUSH2 0x5AC PUSH1 0x0 DUP4 ADD DUP5 PUSH2 0x4D0 JUMP JUMPDEST SWAP3 SWAP2 POP POP JUMP JUMPDEST PUSH32 0x4E487B7100000000000000000000000000000000000000000000000000000000 PUSH1 0x0 MSTORE PUSH1 0x22 PUSH1 0x4 MSTORE PUSH1 0x24 PUSH1 0x0 REVERT JUMPDEST PUSH1 0x0 PUSH1 0x2 DUP3 DIV SWAP1 POP PUSH1 0x1 DUP3 AND DUP1 PUSH2 0x5F9 JUMPI PUSH1 0x7F DUP3 AND SWAP2 POP JUMPDEST PUSH1 0x20 DUP3 LT DUP2 EQ ISZERO PUSH2 0x60D JUMPI PUSH2 0x60C PUSH2 0x5B2 JUMP JUMPDEST JUMPDEST POP SWAP2 SWAP1 POP JUMP INVALID LOG2 PUSH5 0x6970667358 0x22 SLT KECCAK256 SSTORE PUSH11 0x224CA41B9959301B9CEC1F DUP2 0xDB NUMBER 0xE5 SLT CALLCODE PUSH4 0xC1E80A81 DIV 0xC3 EXTCODEHASH 0xAE 0x29 0xBF REVERT BASEFEE PUSH5 0x736F6C6343 STOP ADDMOD ADDMOD STOP CALLER "
				},
				"gasEstimates": {
					"creation": {
						"codeDepositCost": "321800",
						"executionCost": "362",
						"totalCost": "322162"
					},
					"external": {
						"addPerson(string,uint256)": "infinite",
						"people(uint256)": "infinite",
						"retrive()": "2481",
						"store(uint256)": "22498"
					}
				},
				"methodIdentifiers": {
					"addPerson(string,uint256)": "6f760f41",
					"people(uint256)": "9e7a13ad",
					"retrive()": "a6b7fc5b",
					"store(uint256)": "6057361d"
				}
			},
			"storageLayout": {
				"storage": [
					{
						"astId": 3,
						"contract": "contracts/SimpleStorage.sol:SimpleStorage",
						"label": "favoriteNumber",
						"offset": 0,
						"slot": "0",
						"type": "t_uint256"
					},
					{
						"astId": 30,
						"contract": "contracts/SimpleStorage.sol:SimpleStorage",
						"label": "people",
						"offset": 0,
						"slot": "1",
						"type": "t_array(t_struct(People)26_storage)dyn_storage"
					}
				],
				"types": {
					"t_array(t_struct(People)26_storage)dyn_storage": {
						"base": "t_struct(People)26_storage",
						"encoding": "dynamic_array",
						"label": "struct SimpleStorage.People[]",
						"numberOfBytes": "32"
					},
					"t_string_storage": {
						"encoding": "bytes",
						"label": "string",
						"numberOfBytes": "32"
					},
					"t_struct(People)26_storage": {
						"encoding": "inplace",
						"label": "struct SimpleStorage.People",
						"members": [
							{
								"astId": 23,
								"contract": "contracts/SimpleStorage.sol:SimpleStorage",
								"label": "favoriteNumber",
								"offset": 0,
								"slot": "0",
								"type": "t_uint256"
							},
							{
								"astId": 25,
								"contract": "contracts/SimpleStorage.sol:SimpleStorage",
								"label": "name",
								"offset": 0,
								"slot": "1",
								"type": "t_string_storage"
							}
						],
						"numberOfBytes": "64"
					},
					"t_uint256": {
						"encoding": "inplace",
						"label": "uint256",
						"numberOfBytes": "32"
					}
				}
			},
			"userdoc": {
				"kind": "user",
				"methods": {},
				"version": 1
			}
		}
	}
}